{
  "contractName": "ERC721HmyManager",
  "abi": [
    {
      "inputs": [
        {
          "internalType": "address",
          "name": "_wallet",
          "type": "address"
        }
      ],
      "payable": false,
      "stateMutability": "nonpayable",
      "type": "constructor"
    },
    {
      "anonymous": false,
      "inputs": [
        {
          "indexed": true,
          "internalType": "address",
          "name": "token",
          "type": "address"
        },
        {
          "indexed": true,
          "internalType": "address",
          "name": "sender",
          "type": "address"
        },
        {
          "indexed": false,
          "internalType": "uint256",
          "name": "tokenId",
          "type": "uint256"
        },
        {
          "indexed": false,
          "internalType": "address",
          "name": "recipient",
          "type": "address"
        }
      ],
      "name": "Burned",
      "type": "event"
    },
    {
      "anonymous": false,
      "inputs": [
        {
          "indexed": false,
          "internalType": "address",
          "name": "oneToken",
          "type": "address"
        },
        {
          "indexed": false,
          "internalType": "uint256",
          "name": "tokenId",
          "type": "uint256"
        },
        {
          "indexed": false,
          "internalType": "address",
          "name": "recipient",
          "type": "address"
        },
        {
          "indexed": false,
          "internalType": "bytes32",
          "name": "receiptId",
          "type": "bytes32"
        }
      ],
      "name": "Minted",
      "type": "event"
    },
    {
      "constant": true,
      "inputs": [
        {
          "internalType": "address",
          "name": "",
          "type": "address"
        }
      ],
      "name": "mappings",
      "outputs": [
        {
          "internalType": "address",
          "name": "",
          "type": "address"
        }
      ],
      "payable": false,
      "stateMutability": "view",
      "type": "function"
    },
    {
      "constant": true,
      "inputs": [
        {
          "internalType": "bytes32",
          "name": "",
          "type": "bytes32"
        }
      ],
      "name": "usedEvents_",
      "outputs": [
        {
          "internalType": "bool",
          "name": "",
          "type": "bool"
        }
      ],
      "payable": false,
      "stateMutability": "view",
      "type": "function"
    },
    {
      "constant": true,
      "inputs": [],
      "name": "wallet",
      "outputs": [
        {
          "internalType": "address",
          "name": "",
          "type": "address"
        }
      ],
      "payable": false,
      "stateMutability": "view",
      "type": "function"
    },
    {
      "constant": false,
      "inputs": [
        {
          "internalType": "address",
          "name": "tokenManager",
          "type": "address"
        },
        {
          "internalType": "address",
          "name": "ethTokenAddr",
          "type": "address"
        },
        {
          "internalType": "string",
          "name": "name",
          "type": "string"
        },
        {
          "internalType": "string",
          "name": "symbol",
          "type": "string"
        },
        {
          "internalType": "string",
          "name": "baseURI",
          "type": "string"
        }
      ],
      "name": "addToken",
      "outputs": [],
      "payable": false,
      "stateMutability": "nonpayable",
      "type": "function"
    },
    {
      "constant": false,
      "inputs": [
        {
          "internalType": "address",
          "name": "tokenManager",
          "type": "address"
        },
        {
          "internalType": "address",
          "name": "ethTokenAddr",
          "type": "address"
        }
      ],
      "name": "removeToken",
      "outputs": [],
      "payable": false,
      "stateMutability": "nonpayable",
      "type": "function"
    },
    {
      "constant": false,
      "inputs": [
        {
          "internalType": "address",
          "name": "oneToken",
          "type": "address"
        },
        {
          "internalType": "uint256",
          "name": "tokenId",
          "type": "uint256"
        },
        {
          "internalType": "address",
          "name": "recipient",
          "type": "address"
        }
      ],
      "name": "burnToken",
      "outputs": [],
      "payable": false,
      "stateMutability": "nonpayable",
      "type": "function"
    },
    {
      "constant": false,
      "inputs": [
        {
          "internalType": "address",
          "name": "oneToken",
          "type": "address"
        },
        {
          "internalType": "uint256[]",
          "name": "tokenIds",
          "type": "uint256[]"
        },
        {
          "internalType": "address",
          "name": "recipient",
          "type": "address"
        }
      ],
      "name": "burnTokens",
      "outputs": [],
      "payable": false,
      "stateMutability": "nonpayable",
      "type": "function"
    },
    {
      "constant": false,
      "inputs": [
        {
          "internalType": "address",
          "name": "oneToken",
          "type": "address"
        },
        {
          "internalType": "uint256",
          "name": "tokenId",
          "type": "uint256"
        },
        {
          "internalType": "address",
          "name": "recipient",
          "type": "address"
        },
        {
          "internalType": "bytes32",
          "name": "receiptId",
          "type": "bytes32"
        }
      ],
      "name": "mintToken",
      "outputs": [],
      "payable": false,
      "stateMutability": "nonpayable",
      "type": "function"
    },
    {
      "constant": false,
      "inputs": [
        {
          "internalType": "address",
          "name": "oneToken",
          "type": "address"
        },
        {
          "internalType": "uint256[]",
          "name": "tokenIds",
          "type": "uint256[]"
        },
        {
          "internalType": "address",
          "name": "recipient",
          "type": "address"
        },
        {
          "internalType": "bytes32",
          "name": "receiptId",
          "type": "bytes32"
        }
      ],
      "name": "mintTokens",
      "outputs": [],
      "payable": false,
      "stateMutability": "nonpayable",
      "type": "function"
    }
  ],
  "bytecode": "0x608060405234801561001057600080fd5b50604051610faf380380610faf8339818101604052602081101561003357600080fd5b5051600280546001600160a01b0319166001600160a01b03909216919091179055610f4c806100636000396000f3fe608060405234801561001057600080fd5b50600436106100a35760003560e01c80639735b0e311610076578063bccc9fcf1161005b578063bccc9fcf146103e3578063c160e37014610414578063f633be1e146104d5576100a3565b80639735b0e31461037f578063a0e3d1a0146103ad576100a3565b80631a10a07c146100a857806326cf17f6146101685780634110261914610335578063521eb27314610377575b600080fd5b610166600480360360608110156100be57600080fd5b6001600160a01b0382351691908101906040810160208201356401000000008111156100e957600080fd5b8201836020820111156100fb57600080fd5b8035906020019184602083028401116401000000008311171561011d57600080fd5b919080806020026020016040519081016040528093929190818152602001838360200280828437600092019190915250929550505090356001600160a01b0316915061050f9050565b005b610166600480360360a081101561017e57600080fd5b6001600160a01b0382358116926020810135909116918101906060810160408201356401000000008111156101b257600080fd5b8201836020820111156101c457600080fd5b803590602001918460018302840111640100000000831117156101e657600080fd5b91908080601f016020809104026020016040519081016040528093929190818152602001838380828437600092019190915250929594936020810193503591505064010000000081111561023957600080fd5b82018360208201111561024b57600080fd5b8035906020019184600183028401116401000000008311171561026d57600080fd5b91908080601f01602080910402602001604051908101604052809392919081815260200183838082843760009201919091525092959493602081019350359150506401000000008111156102c057600080fd5b8201836020820111156102d257600080fd5b803590602001918460018302840111640100000000831117156102f457600080fd5b91908080601f01602080910402602001604051908101604052809392919081815260200183838082843760009201919091525092955061067f945050505050565b61035b6004803603602081101561034b57600080fd5b50356001600160a01b031661088c565b604080516001600160a01b039092168252519081900360200190f35b61035b6108a7565b6101666004803603604081101561039557600080fd5b506001600160a01b03813581169160200135166108b6565b610166600480360360608110156103c357600080fd5b506001600160a01b03813581169160208101359160409091013516610976565b610400600480360360208110156103f957600080fd5b5035610a97565b604080519115158252519081900360200190f35b6101666004803603608081101561042a57600080fd5b6001600160a01b03823516919081019060408101602082013564010000000081111561045557600080fd5b82018360208201111561046757600080fd5b8035906020019184602083028401116401000000008311171561048957600080fd5b919080806020026020016040519081016040528093929190818152602001838360200280828437600092019190915250929550506001600160a01b038335169350505060200135610aac565b610166600480360360808110156104eb57600080fd5b506001600160a01b0381358116916020810135916040820135169060600135610cef565b60005b825181101561067957836001600160a01b03166379cc67903385848151811061053757fe5b60200260200101516040518363ffffffff1660e01b815260040180836001600160a01b03166001600160a01b0316815260200182815260200192505050600060405180830381600087803b15801561058e57600080fd5b505af11580156105a2573d6000803e3d6000fd5b50505050836001600160a01b0316632baeceb76040518163ffffffff1660e01b8152600401600060405180830381600087803b1580156105e157600080fd5b505af11580156105f5573d6000803e3d6000fd5b50505050336001600160a01b0316846001600160a01b03167f47b4128ad231bee46bdb1f8614450b5ffe6eb96340e87519a0c3a8b91ee714ec85848151811061063a57fe5b60200260200101518560405180838152602001826001600160a01b03166001600160a01b031681526020019250505060405180910390a3600101610512565b50505050565b6000856001600160a01b0316635f06226e868686866040518563ffffffff1660e01b815260040180856001600160a01b03166001600160a01b03168152602001806020018060200180602001848103845287818151815260200191508051906020019080838360005b838110156107005781810151838201526020016106e8565b50505050905090810190601f16801561072d5780820380516001836020036101000a031916815260200191505b50848103835286518152865160209182019188019080838360005b83811015610760578181015183820152602001610748565b50505050905090810190601f16801561078d5780820380516001836020036101000a031916815260200191505b50848103825285518152855160209182019187019080838360005b838110156107c05781810151838201526020016107a8565b50505050905090810190601f1680156107ed5780820380516001836020036101000a031916815260200191505b50975050505050505050602060405180830381600087803b15801561081157600080fd5b505af1158015610825573d6000803e3d6000fd5b505050506040513d602081101561083b57600080fd5b50516001600160a01b03958616600090815260016020526040902080547fffffffffffffffffffffffff00000000000000000000000000000000000000001696909116959095179094555050505050565b6001602052600090815260409020546001600160a01b031681565b6002546001600160a01b031681565b604080517f13baf1e60000000000000000000000000000000000000000000000000000000081526001600160a01b0383811660048301526000602483018190529251908516926313baf1e6926044808201939182900301818387803b15801561091e57600080fd5b505af1158015610932573d6000803e3d6000fd5b505050506001600160a01b0316600090815260016020526040902080547fffffffffffffffffffffffff000000000000000000000000000000000000000016905550565b604080517f79cc67900000000000000000000000000000000000000000000000000000000081523360048201526024810184905290516001600160a01b038516916379cc679091604480830192600092919082900301818387803b1580156109dd57600080fd5b505af11580156109f1573d6000803e3d6000fd5b50505050826001600160a01b0316632baeceb76040518163ffffffff1660e01b8152600401600060405180830381600087803b158015610a3057600080fd5b505af1158015610a44573d6000803e3d6000fd5b5050604080518581526001600160a01b038581166020830152825133955090881693507f47b4128ad231bee46bdb1f8614450b5ffe6eb96340e87519a0c3a8b91ee714ec929181900390910190a3505050565b60006020819052908152604090205460ff1681565b6002546001600160a01b03163314610b0b576040805162461bcd60e51b815260206004820152601960248201527f486d794d616e616765722f6e6f742d617574686f72697a656400000000000000604482015290519081900360640190fd5b60008181526020819052604090205460ff1615610b595760405162461bcd60e51b815260040180806020018281038252602a815260200180610eee602a913960400191505060405180910390fd5b60005b8351811015610cd057846001600160a01b03166340c10f1984868481518110610b8157fe5b60200260200101516040518363ffffffff1660e01b815260040180836001600160a01b03166001600160a01b0316815260200182815260200192505050602060405180830381600087803b158015610bd857600080fd5b505af1158015610bec573d6000803e3d6000fd5b505050506040513d6020811015610c0257600080fd5b50506040805163684ef04560e11b815290516001600160a01b0387169163d09de08a91600480830192600092919082900301818387803b158015610c4557600080fd5b505af1158015610c59573d6000803e3d6000fd5b505050507ffdc0a3af821280dd73e4f6683e16c5afc31a629d07af623f9a4689d68559388685858381518110610c8b57fe5b602090810291909101810151604080516001600160a01b03948516815292830191909152918616818301526060810185905290519081900360800190a1600101610b5c565b506000908152602081905260409020805460ff19166001179055505050565b6002546001600160a01b03163314610d4e576040805162461bcd60e51b815260206004820152601960248201527f486d794d616e616765722f6e6f742d617574686f72697a656400000000000000604482015290519081900360640190fd5b60008181526020819052604090205460ff1615610d9c5760405162461bcd60e51b815260040180806020018281038252602a815260200180610eee602a913960400191505060405180910390fd5b836001600160a01b03166340c10f1983856040518363ffffffff1660e01b815260040180836001600160a01b03166001600160a01b0316815260200182815260200192505050602060405180830381600087803b158015610dfc57600080fd5b505af1158015610e10573d6000803e3d6000fd5b505050506040513d6020811015610e2657600080fd5b5050600081815260208190526040808220805460ff19166001179055805163684ef04560e11b815290516001600160a01b0387169263d09de08a926004808201939182900301818387803b158015610e7d57600080fd5b505af1158015610e91573d6000803e3d6000fd5b5050604080516001600160a01b038089168252602082018890528616818301526060810185905290517ffdc0a3af821280dd73e4f6683e16c5afc31a629d07af623f9a4689d6855938869350908190036080019150a15050505056fe486d794d616e616765722f546865206c6f636b206576656e742063616e6e6f7420626520726575736564a265627a7a7231582088b1dedcba8921e4f98f304e4e5a96bd68b9c1a30448cd05f4d6b1a61f551a2e64736f6c63430005110032",
  "source": "pragma solidity 0.5.17;\nimport \"@openzeppelin/contracts/token/ERC721/IERC721.sol\";\nimport \"../lib/NFTTokenManager.sol\";\nimport \"../lib/BridgedNFTToken.sol\";\n\ninterface MintableToken {\n    function mint(address beneficiary, uint256 tokenId) external returns (bool);\n}\n\ninterface BurnableToken {\n    function burnFrom(address account, uint256 tokenId) external;\n}\n\ncontract ERC721HmyManager {\n    mapping(bytes32 => bool) public usedEvents_;\n    mapping(address => address) public mappings;\n\n    event Burned(\n        address indexed token,\n        address indexed sender,\n        uint256 tokenId,\n        address recipient\n    );\n\n    event Minted(\n        address oneToken,\n        uint256 tokenId,\n        address recipient,\n        bytes32 receiptId\n    );\n\n    address public wallet;\n    modifier onlyWallet {\n        require(msg.sender == wallet, \"HmyManager/not-authorized\");\n        _;\n    }\n\n    /**\n     * @dev constructor\n     * @param _wallet is the multisig wallet\n     */\n    constructor(address _wallet) public {\n        wallet = _wallet;\n    }\n\n    /**\n     * @dev map an ethereum token to harmony\n     * @param tokenManager address to token manager\n     * @param ethTokenAddr ethereum token address to map\n     * @param name of the ethereum token\n     * @param symbol of the ethereum token\n     * @param baseURI base URI of the token\n     */\n    function addToken(\n        address tokenManager,\n        address ethTokenAddr,\n        string memory name,\n        string memory symbol,\n        string memory baseURI\n    ) public {\n        address oneTokenAddr = NFTTokenManager(tokenManager).addToken(\n            ethTokenAddr,\n            name,\n            symbol,\n            baseURI\n        );\n        mappings[ethTokenAddr] = oneTokenAddr;\n    }\n\n    /**\n     * @dev deregister token mapping in the token manager\n     * @param tokenManager address to token manager\n     * @param ethTokenAddr address to remove token\n     */\n    function removeToken(address tokenManager, address ethTokenAddr) public {\n        NFTTokenManager(tokenManager).removeToken(ethTokenAddr, 0);\n        delete mappings[ethTokenAddr];\n    }\n\n    /**\n     * @dev burns tokens on harmony to be unlocked on ethereum\n     * @param oneToken harmony token address\n     * @param tokenId tokenId to burn\n     * @param recipient recipient of the unlock tokens on ethereum\n     */\n    function burnToken(\n        address oneToken,\n        uint256 tokenId,\n        address recipient\n    ) public {\n        BurnableToken(oneToken).burnFrom(msg.sender, tokenId);\n        BridgedNFTToken(oneToken).decrement();\n        emit Burned(oneToken, msg.sender, tokenId, recipient);\n    }\n\n    /**\n     * @dev burns tokens on harmony to be unlocked on ethereum\n     * @param oneToken harmony token address\n     * @param tokenIds tokenIds to burn\n     * @param recipient recipient of the unlock tokens on ethereum\n     */\n    function burnTokens(\n        address oneToken,\n        uint256[] memory tokenIds,\n        address recipient\n    ) public {\n        for (uint256 index = 0; index < tokenIds.length; index++) {\n            BurnableToken(oneToken).burnFrom(msg.sender, tokenIds[index]);\n            BridgedNFTToken(oneToken).decrement();\n            emit Burned(oneToken, msg.sender, tokenIds[index], recipient);\n        }\n    }\n\n    /**\n     * @dev mints tokens corresponding to the tokens locked in the ethereum chain\n     * @param oneToken is the token address for minting\n     * @param tokenId tokenId for minting\n     * @param recipient recipient of the minted tokens (harmony address)\n     * @param receiptId transaction hash of the lock event on ethereum chain\n     */\n    function mintToken(\n        address oneToken,\n        uint256 tokenId,\n        address recipient,\n        bytes32 receiptId\n    ) public onlyWallet {\n        require(\n            !usedEvents_[receiptId],\n            \"HmyManager/The lock event cannot be reused\"\n        );\n        MintableToken(oneToken).mint(recipient, tokenId);\n        usedEvents_[receiptId] = true;\n        BridgedNFTToken(oneToken).increment();\n        emit Minted(oneToken, tokenId, recipient, receiptId);\n    }\n\n    /**\n     * @dev mints tokens corresponding to the tokens locked in the ethereum chain\n     * @param oneToken is the token address for minting\n     * @param tokenIds tokenIds for minting\n     * @param recipient recipient of the minted tokens (harmony address)\n     * @param receiptId transaction hash of the lock event on ethereum chain\n     */\n    function mintTokens(\n        address oneToken,\n        uint256[] memory tokenIds,\n        address recipient,\n        bytes32 receiptId\n    ) public onlyWallet {\n        require(\n            !usedEvents_[receiptId],\n            \"HmyManager/The lock event cannot be reused\"\n        );\n        for (uint256 index = 0; index < tokenIds.length; index++) {\n            MintableToken(oneToken).mint(recipient, tokenIds[index]);\n            BridgedNFTToken(oneToken).increment();\n            emit Minted(oneToken, tokenIds[index], recipient, receiptId);\n        }\n        usedEvents_[receiptId] = true;\n    }\n}\n",
  "sourcePath": "/home/fernando/repos/harmony/hmy-eth-bridge/contracts/erc721/ERC721HmyManager.sol",
  "compiler": {
    "name": "solc",
    "version": "0.5.17+commit.d19bba13.Emscripten.clang"
  },
  "schemaVersion": "3.4.7",
  "updatedAt": "2022-06-08T19:55:20.886Z",
  "devdoc": {
    "methods": {
      "addToken(address,address,string,string,string)": {
        "details": "map an ethereum token to harmony",
        "params": {
          "baseURI": "base URI of the token",
          "ethTokenAddr": "ethereum token address to map",
          "name": "of the ethereum token",
          "symbol": "of the ethereum token",
          "tokenManager": "address to token manager"
        }
      },
      "burnToken(address,uint256,address)": {
        "details": "burns tokens on harmony to be unlocked on ethereum",
        "params": {
          "oneToken": "harmony token address",
          "recipient": "recipient of the unlock tokens on ethereum",
          "tokenId": "tokenId to burn"
        }
      },
      "burnTokens(address,uint256[],address)": {
        "details": "burns tokens on harmony to be unlocked on ethereum",
        "params": {
          "oneToken": "harmony token address",
          "recipient": "recipient of the unlock tokens on ethereum",
          "tokenIds": "tokenIds to burn"
        }
      },
      "constructor": {
        "details": "constructor",
        "params": {
          "_wallet": "is the multisig wallet"
        }
      },
      "mintToken(address,uint256,address,bytes32)": {
        "details": "mints tokens corresponding to the tokens locked in the ethereum chain",
        "params": {
          "oneToken": "is the token address for minting",
          "receiptId": "transaction hash of the lock event on ethereum chain",
          "recipient": "recipient of the minted tokens (harmony address)",
          "tokenId": "tokenId for minting"
        }
      },
      "mintTokens(address,uint256[],address,bytes32)": {
        "details": "mints tokens corresponding to the tokens locked in the ethereum chain",
        "params": {
          "oneToken": "is the token address for minting",
          "receiptId": "transaction hash of the lock event on ethereum chain",
          "recipient": "recipient of the minted tokens (harmony address)",
          "tokenIds": "tokenIds for minting"
        }
      },
      "removeToken(address,address)": {
        "details": "deregister token mapping in the token manager",
        "params": {
          "ethTokenAddr": "address to remove token",
          "tokenManager": "address to token manager"
        }
      }
    }
  },
  "userdoc": {
    "methods": {}
  }
}