{
  "contractName": "TokenManager",
  "abi": [
    {
      "anonymous": false,
      "inputs": [
        {
          "indexed": true,
          "internalType": "address",
          "name": "previousOwner",
          "type": "address"
        },
        {
          "indexed": true,
          "internalType": "address",
          "name": "newOwner",
          "type": "address"
        }
      ],
      "name": "OwnershipTransferred",
      "type": "event"
    },
    {
      "anonymous": false,
      "inputs": [
        {
          "indexed": true,
          "internalType": "address",
          "name": "tokenReq",
          "type": "address"
        },
        {
          "indexed": true,
          "internalType": "address",
          "name": "tokenAck",
          "type": "address"
        }
      ],
      "name": "TokenMapAck",
      "type": "event"
    },
    {
      "constant": true,
      "inputs": [],
      "name": "isOwner",
      "outputs": [
        {
          "internalType": "bool",
          "name": "",
          "type": "bool"
        }
      ],
      "payable": false,
      "stateMutability": "view",
      "type": "function"
    },
    {
      "constant": true,
      "inputs": [
        {
          "internalType": "address",
          "name": "",
          "type": "address"
        }
      ],
      "name": "mappedTokens",
      "outputs": [
        {
          "internalType": "address",
          "name": "",
          "type": "address"
        }
      ],
      "payable": false,
      "stateMutability": "view",
      "type": "function"
    },
    {
      "constant": true,
      "inputs": [],
      "name": "owner",
      "outputs": [
        {
          "internalType": "address",
          "name": "",
          "type": "address"
        }
      ],
      "payable": false,
      "stateMutability": "view",
      "type": "function"
    },
    {
      "constant": false,
      "inputs": [],
      "name": "renounceOwnership",
      "outputs": [],
      "payable": false,
      "stateMutability": "nonpayable",
      "type": "function"
    },
    {
      "constant": false,
      "inputs": [
        {
          "internalType": "address",
          "name": "newOwner",
          "type": "address"
        }
      ],
      "name": "transferOwnership",
      "outputs": [],
      "payable": false,
      "stateMutability": "nonpayable",
      "type": "function"
    },
    {
      "constant": true,
      "inputs": [
        {
          "internalType": "address",
          "name": "",
          "type": "address"
        }
      ],
      "name": "wards",
      "outputs": [
        {
          "internalType": "uint256",
          "name": "",
          "type": "uint256"
        }
      ],
      "payable": false,
      "stateMutability": "view",
      "type": "function"
    },
    {
      "constant": false,
      "inputs": [
        {
          "internalType": "address",
          "name": "guy",
          "type": "address"
        }
      ],
      "name": "rely",
      "outputs": [],
      "payable": false,
      "stateMutability": "nonpayable",
      "type": "function"
    },
    {
      "constant": false,
      "inputs": [
        {
          "internalType": "address",
          "name": "guy",
          "type": "address"
        }
      ],
      "name": "deny",
      "outputs": [],
      "payable": false,
      "stateMutability": "nonpayable",
      "type": "function"
    },
    {
      "constant": false,
      "inputs": [
        {
          "internalType": "address",
          "name": "ethTokenAddr",
          "type": "address"
        },
        {
          "internalType": "string",
          "name": "name",
          "type": "string"
        },
        {
          "internalType": "string",
          "name": "symbol",
          "type": "string"
        },
        {
          "internalType": "uint8",
          "name": "decimals",
          "type": "uint8"
        }
      ],
      "name": "addToken",
      "outputs": [
        {
          "internalType": "address",
          "name": "",
          "type": "address"
        }
      ],
      "payable": false,
      "stateMutability": "nonpayable",
      "type": "function"
    },
    {
      "constant": false,
      "inputs": [
        {
          "internalType": "address",
          "name": "ethTokenAddr",
          "type": "address"
        },
        {
          "internalType": "address",
          "name": "oneTokenAddr",
          "type": "address"
        }
      ],
      "name": "registerToken",
      "outputs": [
        {
          "internalType": "bool",
          "name": "",
          "type": "bool"
        }
      ],
      "payable": false,
      "stateMutability": "nonpayable",
      "type": "function"
    },
    {
      "constant": false,
      "inputs": [
        {
          "internalType": "address",
          "name": "ethTokenAddr",
          "type": "address"
        },
        {
          "internalType": "uint256",
          "name": "supply",
          "type": "uint256"
        }
      ],
      "name": "removeToken",
      "outputs": [],
      "payable": false,
      "stateMutability": "nonpayable",
      "type": "function"
    }
  ],
  "bytecode": "0x608060405260006100176001600160e01b0361006616565b600080546001600160a01b0319166001600160a01b0383169081178255604051929350917f8be0079c531659141344cd1fd0a4f28419497f9722a3daafe3b4186f6b6457e0908290a35061006a565b3390565b6124f1806100796000396000f3fe60806040523480156200001157600080fd5b5060043610620000dc5760003560e01c80638e404e9c116200008d578063bf353dbb1162000063578063bf353dbb146200032e578063e6ede14d1462000369578063f2fde38b146200039257620000dc565b80638e404e9c14620001b05780638f32d59b14620002fb5780639c52a7f1146200030557620000dc565b806365fae35e11620000c357806365fae35e1462000157578063715018a614620001805780638da5cb5b146200018a57620000dc565b806313baf1e614620000e15780634739f7e51462000112575b600080fd5b6200011060048036036040811015620000f957600080fd5b506001600160a01b038135169060200135620003bb565b005b62000143600480360360408110156200012a57600080fd5b506001600160a01b038135811691602001351662000587565b604080519115158252519081900360200190f35b62000110600480360360208110156200016f57600080fd5b50356001600160a01b0316620006cc565b6200011062000745565b62000194620007f8565b604080516001600160a01b039092168252519081900360200190f35b6200019460048036036080811015620001c857600080fd5b6001600160a01b038235169190810190604081016020820135640100000000811115620001f457600080fd5b8201836020820111156200020757600080fd5b803590602001918460018302840111640100000000831117156200022a57600080fd5b91908080601f01602080910402602001604051908101604052809392919081815260200183838082843760009201919091525092959493602081019350359150506401000000008111156200027e57600080fd5b8201836020820111156200029157600080fd5b80359060200191846001830284011164010000000083111715620002b457600080fd5b91908080601f0160208091040260200160405190810160405280939291908181526020018383808284376000920191909152509295505050903560ff169150620008079050565b6200014362000b1d565b62000110600480360360208110156200031d57600080fd5b50356001600160a01b031662000b43565b62000357600480360360208110156200034657600080fd5b50356001600160a01b031662000c15565b60408051918252519081900360200190f35b62000194600480360360208110156200038157600080fd5b50356001600160a01b031662000c27565b6200011060048036036020811015620003aa57600080fd5b50356001600160a01b031662000c42565b3360009081526002602052604090205460011462000420576040805162461bcd60e51b815260206004820152601b60248201527f546f6b656e4d616e616765722f6e6f742d617574686f72697a65640000000000604482015290519081900360640190fd5b6001600160a01b0382811660009081526001602052604090205416620004785760405162461bcd60e51b815260040180806020018281038252602d81526020018062002441602d913960400191505060405180910390fd5b6001600160a01b038083166000908152600160209081526040918290205482517f18160ddd0000000000000000000000000000000000000000000000000000000081529251931692849284926318160ddd92600480840193829003018186803b158015620004e557600080fd5b505afa158015620004fa573d6000803e3d6000fd5b505050506040513d60208110156200051157600080fd5b505114620005515760405162461bcd60e51b8152600401808060200182810382526027815260200180620024966027913960400191505060405180910390fd5b50506001600160a01b03166000908152600160205260409020805473ffffffffffffffffffffffffffffffffffffffff19169055565b33600090815260026020526040812054600114620005ec576040805162461bcd60e51b815260206004820152601b60248201527f546f6b656e4d616e616765722f6e6f742d617574686f72697a65640000000000604482015290519081900360640190fd5b6001600160a01b038316620006335760405162461bcd60e51b815260040180806020018281038252602b81526020018062002383602b913960400191505060405180910390fd5b6001600160a01b0383811660009081526001602052604090205416156200068c5760405162461bcd60e51b81526004018080602001828103825260288152602001806200246e6028913960400191505060405180910390fd5b6001600160a01b039283166000908152600160205260409020805473ffffffffffffffffffffffffffffffffffffffff1916929093169190911790915590565b620006d662000b1d565b62000728576040805162461bcd60e51b815260206004820181905260248201527f4f776e61626c653a2063616c6c6572206973206e6f7420746865206f776e6572604482015290519081900360640190fd5b6001600160a01b0316600090815260026020526040902060019055565b6200074f62000b1d565b620007a1576040805162461bcd60e51b815260206004820181905260248201527f4f776e61626c653a2063616c6c6572206973206e6f7420746865206f776e6572604482015290519081900360640190fd5b600080546040516001600160a01b03909116907f8be0079c531659141344cd1fd0a4f28419497f9722a3daafe3b4186f6b6457e0908390a36000805473ffffffffffffffffffffffffffffffffffffffff19169055565b6000546001600160a01b031690565b336000908152600260205260408120546001146200086c576040805162461bcd60e51b815260206004820152601b60248201527f546f6b656e4d616e616765722f6e6f742d617574686f72697a65640000000000604482015290519081900360640190fd5b6001600160a01b038516620008b35760405162461bcd60e51b8152600401808060200182810382526027815260200180620023d46027913960400191505060405180910390fd5b6001600160a01b0385811660009081526001602052604090205416156200090c5760405162461bcd60e51b8152600401808060200182810382526024815260200180620023fb6024913960400191505060405180910390fd5b600085858585604051620009209062000d5f565b6001600160a01b038516815260ff82166060820152608060208083018281528651928401929092528551604084019160a08501919088019080838360005b83811015620009785781810151838201526020016200095e565b50505050905090810190601f168015620009a65780820380516001836020036101000a031916815260200191505b50838103825285518152855160209182019187019080838360005b83811015620009db578181015183820152602001620009c1565b50505050905090810190601f16801562000a095780820380516001836020036101000a031916815260200191505b509650505050505050604051809103906000f08015801562000a2f573d6000803e3d6000fd5b506001600160a01b03878116600090815260016020526040808220805473ffffffffffffffffffffffffffffffffffffffff1916938516938417905580517f983b2d560000000000000000000000000000000000000000000000000000000081523360048201529051939450849363983b2d569260248084019391929182900301818387803b15801562000ac257600080fd5b505af115801562000ad7573d6000803e3d6000fd5b50506040516001600160a01b0380851693508a1691507f78591f651c27eef63481b7fd779e44c2426cbe82c7050fe9bc90b6707efbc3d390600090a39695505050505050565b600080546001600160a01b031662000b3462000cac565b6001600160a01b031614905090565b62000b4d62000b1d565b62000b9f576040805162461bcd60e51b815260206004820181905260248201527f4f776e61626c653a2063616c6c6572206973206e6f7420746865206f776e6572604482015290519081900360640190fd5b62000ba9620007f8565b6001600160a01b0316816001600160a01b0316141562000bfb5760405162461bcd60e51b81526004018080602001828103825260228152602001806200241f6022913960400191505060405180910390fd5b6001600160a01b0316600090815260026020526040812055565b60026020526000908152604090205481565b6001602052600090815260409020546001600160a01b031681565b62000c4c62000b1d565b62000c9e576040805162461bcd60e51b815260206004820181905260248201527f4f776e61626c653a2063616c6c6572206973206e6f7420746865206f776e6572604482015290519081900360640190fd5b62000ca98162000cb0565b50565b3390565b6001600160a01b03811662000cf75760405162461bcd60e51b8152600401808060200182810382526026815260200180620023ae6026913960400191505060405180910390fd5b600080546040516001600160a01b03808516939216917f8be0079c531659141344cd1fd0a4f28419497f9722a3daafe3b4186f6b6457e091a36000805473ffffffffffffffffffffffffffffffffffffffff19166001600160a01b0392909216919091179055565b6116158062000d6e8339019056fe60806040523480156200001157600080fd5b506040516200161538038062001615833981810160405260808110156200003757600080fd5b8151602083018051604051929492938301929190846401000000008211156200005f57600080fd5b9083019060208201858111156200007557600080fd5b82516401000000008111828201881017156200009057600080fd5b82525081516020918201929091019080838360005b83811015620000bf578181015183820152602001620000a5565b50505050905090810190601f168015620000ed5780820380516001836020036101000a031916815260200191505b50604052602001805160405193929190846401000000008211156200011157600080fd5b9083019060208201858111156200012757600080fd5b82516401000000008111828201881017156200014257600080fd5b82525081516020918201929091019080838360005b838110156200017157818101518382015260200162000157565b50505050905090810190601f1680156200019f5780820380516001836020036101000a031916815260200191505b50604052602090810151855190935085925084918491620001c7916003919086019062000389565b508151620001dd90600490602085019062000389565b506005805460ff191660ff9290921691909117905550620002129050620002036200023c565b6001600160e01b036200024116565b5050600780546001600160a01b0319166001600160a01b039390931692909217909155506200042b565b335b90565b6200025c8160066200029360201b62000ec01790919060201c565b6040516001600160a01b038216907f6ae172837ea30b801fbfcdd4108aa1d5bf8ff775444fd70256b44e6bf3dfc3f690600090a250565b620002a882826001600160e01b036200032016565b15620002fb576040805162461bcd60e51b815260206004820152601f60248201527f526f6c65733a206163636f756e7420616c72656164792068617320726f6c6500604482015290519081900360640190fd5b6001600160a01b0316600090815260209190915260409020805460ff19166001179055565b60006001600160a01b038216620003695760405162461bcd60e51b8152600401808060200182810382526022815260200180620015f36022913960400191505060405180910390fd5b506001600160a01b03166000908152602091909152604090205460ff1690565b828054600181600116156101000203166002900490600052602060002090601f016020900481019282601f10620003cc57805160ff1916838001178555620003fc565b82800160010185558215620003fc579182015b82811115620003fc578251825591602001919060010190620003df565b506200040a9291506200040e565b5090565b6200023e91905b808211156200040a576000815560010162000415565b6111b8806200043b6000396000f3fe608060405234801561001057600080fd5b50600436106101365760003560e01c806370a08231116100b25780639865027511610081578063a9059cbb11610066578063a9059cbb146103b5578063aa271e1a146103e1578063dd62ed3e1461040757610136565b80639865027514610381578063a457c2d71461038957610136565b806370a082311461030157806379cc67901461032757806395d89b4114610353578063983b2d561461035b57610136565b806323b872dd1161010957806339509351116100ee578063395093511461028a57806340c10f19146102b657806342966c68146102e257610136565b806323b872dd14610236578063313ce5671461026c57610136565b806306fdde031461013b578063095ea7b3146101b857806311c9adc8146101f857806318160ddd1461021c575b600080fd5b610143610435565b6040805160208082528351818301528351919283929083019185019080838360005b8381101561017d578181015183820152602001610165565b50505050905090810190601f1680156101aa5780820380516001836020036101000a031916815260200191505b509250505060405180910390f35b6101e4600480360360408110156101ce57600080fd5b506001600160a01b0381351690602001356104cb565b604080519115158252519081900360200190f35b6102006104e8565b604080516001600160a01b039092168252519081900360200190f35b6102246104f7565b60408051918252519081900360200190f35b6101e46004803603606081101561024c57600080fd5b506001600160a01b038135811691602081013590911690604001356104fd565b61027461058a565b6040805160ff9092168252519081900360200190f35b6101e4600480360360408110156102a057600080fd5b506001600160a01b038135169060200135610593565b6101e4600480360360408110156102cc57600080fd5b506001600160a01b0381351690602001356105e7565b6102ff600480360360208110156102f857600080fd5b503561063e565b005b6102246004803603602081101561031757600080fd5b50356001600160a01b0316610652565b6102ff6004803603604081101561033d57600080fd5b506001600160a01b03813516906020013561066d565b61014361067b565b6102ff6004803603602081101561037157600080fd5b50356001600160a01b03166106dc565b6102ff61072b565b6101e46004803603604081101561039f57600080fd5b506001600160a01b03813516906020013561073d565b6101e4600480360360408110156103cb57600080fd5b506001600160a01b0381351690602001356107ab565b6101e4600480360360208110156103f757600080fd5b50356001600160a01b03166107bf565b6102246004803603604081101561041d57600080fd5b506001600160a01b03813581169160200135166107d8565b60038054604080516020601f60026000196101006001881615020190951694909404938401819004810282018101909252828152606093909290918301828280156104c15780601f10610496576101008083540402835291602001916104c1565b820191906000526020600020905b8154815290600101906020018083116104a457829003601f168201915b5050505050905090565b60006104df6104d8610803565b8484610807565b50600192915050565b6007546001600160a01b031681565b60025490565b600061050a8484846108f3565b61058084610516610803565b61057b85604051806060016040528060288152602001611087602891396001600160a01b038a16600090815260016020526040812090610554610803565b6001600160a01b03168152602081019190915260400160002054919063ffffffff610a4f16565b610807565b5060019392505050565b60055460ff1690565b60006104df6105a0610803565b8461057b85600160006105b1610803565b6001600160a01b03908116825260208083019390935260409182016000908120918c16815292529020549063ffffffff610ae616565b60006105f96105f4610803565b6107bf565b6106345760405162461bcd60e51b81526004018080602001828103825260308152602001806110366030913960400191505060405180910390fd5b6104df8383610b47565b61064f610649610803565b82610c37565b50565b6001600160a01b031660009081526020819052604090205490565b6106778282610d33565b5050565b60048054604080516020601f60026000196101006001881615020190951694909404938401819004810282018101909252828152606093909290918301828280156104c15780601f10610496576101008083540402835291602001916104c1565b6106e76105f4610803565b6107225760405162461bcd60e51b81526004018080602001828103825260308152602001806110366030913960400191505060405180910390fd5b61064f81610d87565b61073b610736610803565b610dcf565b565b60006104df61074a610803565b8461057b8560405180606001604052806025815260200161115f6025913960016000610774610803565b6001600160a01b03908116825260208083019390935260409182016000908120918d1681529252902054919063ffffffff610a4f16565b60006104df6107b8610803565b84846108f3565b60006107d260068363ffffffff610e1716565b92915050565b6001600160a01b03918216600090815260016020908152604080832093909416825291909152205490565b3390565b6001600160a01b03831661084c5760405162461bcd60e51b815260040180806020018281038252602481526020018061113b6024913960400191505060405180910390fd5b6001600160a01b0382166108915760405162461bcd60e51b8152600401808060200182810382526022815260200180610fee6022913960400191505060405180910390fd5b6001600160a01b03808416600081815260016020908152604080832094871680845294825291829020859055815185815291517f8c5be1e5ebec7d5bd14f71427d1e84f3dd0314c0f7b2291e5b200ac8c7c3b9259281900390910190a3505050565b6001600160a01b0383166109385760405162461bcd60e51b81526004018080602001828103825260258152602001806111166025913960400191505060405180910390fd5b6001600160a01b03821661097d5760405162461bcd60e51b8152600401808060200182810382526023815260200180610fa96023913960400191505060405180910390fd5b6109c081604051806060016040528060268152602001611010602691396001600160a01b038616600090815260208190526040902054919063ffffffff610a4f16565b6001600160a01b0380851660009081526020819052604080822093909355908416815220546109f5908263ffffffff610ae616565b6001600160a01b038084166000818152602081815260409182902094909455805185815290519193928716927fddf252ad1be2c89b69c2b068fc378daa952ba7f163c4a11628f55a4df523b3ef92918290030190a3505050565b60008184841115610ade5760405162461bcd60e51b81526004018080602001828103825283818151815260200191508051906020019080838360005b83811015610aa3578181015183820152602001610a8b565b50505050905090810190601f168015610ad05780820380516001836020036101000a031916815260200191505b509250505060405180910390fd5b505050900390565b600082820183811015610b40576040805162461bcd60e51b815260206004820152601b60248201527f536166654d6174683a206164646974696f6e206f766572666c6f770000000000604482015290519081900360640190fd5b9392505050565b6001600160a01b038216610ba2576040805162461bcd60e51b815260206004820152601f60248201527f45524332303a206d696e7420746f20746865207a65726f206164647265737300604482015290519081900360640190fd5b600254610bb5908263ffffffff610ae616565b6002556001600160a01b038216600090815260208190526040902054610be1908263ffffffff610ae616565b6001600160a01b0383166000818152602081815260408083209490945583518581529351929391927fddf252ad1be2c89b69c2b068fc378daa952ba7f163c4a11628f55a4df523b3ef9281900390910190a35050565b6001600160a01b038216610c7c5760405162461bcd60e51b81526004018080602001828103825260218152602001806110f56021913960400191505060405180910390fd5b610cbf81604051806060016040528060228152602001610fcc602291396001600160a01b038516600090815260208190526040902054919063ffffffff610a4f16565b6001600160a01b038316600090815260208190526040902055600254610ceb908263ffffffff610e7e16565b6002556040805182815290516000916001600160a01b038516917fddf252ad1be2c89b69c2b068fc378daa952ba7f163c4a11628f55a4df523b3ef9181900360200190a35050565b610d3d8282610c37565b61067782610d49610803565b61057b846040518060600160405280602481526020016110d1602491396001600160a01b038816600090815260016020526040812090610554610803565b610d9860068263ffffffff610ec016565b6040516001600160a01b038216907f6ae172837ea30b801fbfcdd4108aa1d5bf8ff775444fd70256b44e6bf3dfc3f690600090a250565b610de060068263ffffffff610f4116565b6040516001600160a01b038216907fe94479a9f7e1952cc78f2d6baab678adc1b772d936c6583def489e524cb6669290600090a250565b60006001600160a01b038216610e5e5760405162461bcd60e51b81526004018080602001828103825260228152602001806110af6022913960400191505060405180910390fd5b506001600160a01b03166000908152602091909152604090205460ff1690565b6000610b4083836040518060400160405280601e81526020017f536166654d6174683a207375627472616374696f6e206f766572666c6f770000815250610a4f565b610eca8282610e17565b15610f1c576040805162461bcd60e51b815260206004820152601f60248201527f526f6c65733a206163636f756e7420616c72656164792068617320726f6c6500604482015290519081900360640190fd5b6001600160a01b0316600090815260209190915260409020805460ff19166001179055565b610f4b8282610e17565b610f865760405162461bcd60e51b81526004018080602001828103825260218152602001806110666021913960400191505060405180910390fd5b6001600160a01b0316600090815260209190915260409020805460ff1916905556fe45524332303a207472616e7366657220746f20746865207a65726f206164647265737345524332303a206275726e20616d6f756e7420657863656564732062616c616e636545524332303a20617070726f766520746f20746865207a65726f206164647265737345524332303a207472616e7366657220616d6f756e7420657863656564732062616c616e63654d696e746572526f6c653a2063616c6c657220646f6573206e6f74206861766520746865204d696e74657220726f6c65526f6c65733a206163636f756e7420646f6573206e6f74206861766520726f6c6545524332303a207472616e7366657220616d6f756e74206578636565647320616c6c6f77616e6365526f6c65733a206163636f756e7420697320746865207a65726f206164647265737345524332303a206275726e20616d6f756e74206578636565647320616c6c6f77616e636545524332303a206275726e2066726f6d20746865207a65726f206164647265737345524332303a207472616e736665722066726f6d20746865207a65726f206164647265737345524332303a20617070726f76652066726f6d20746865207a65726f206164647265737345524332303a2064656372656173656420616c6c6f77616e63652062656c6f77207a65726fa265627a7a72315820236fb374660578748268c0a9e2757f9eb2ec7f8aabed815dfa49256c4c0d857364736f6c63430005110032526f6c65733a206163636f756e7420697320746865207a65726f2061646472657373546f6b656e4d616e616765722f657468546f6b656e416464722069732061207a65726f20616464726573734f776e61626c653a206e6577206f776e657220697320746865207a65726f2061646472657373546f6b656e4d616e616765722f657468546f6b656e2069732061207a65726f2061646472657373546f6b656e4d616e616765722f657468546f6b656e20616c7265616479206d6170706564546f6b656e4d616e616765722f63616e6e6f742064656e7920746865206f776e6572546f6b656e4d616e616765722f657468546f6b656e206d617070696e6720646f6573206e6f7420657869737473546f6b656e4d616e616765722f657468546f6b656e4164647220616c7265616479206d6170706564546f6b656e4d616e616765722f72656d6f766520686173206e6f6e2d7a65726f20737570706c79a265627a7a72315820878dcdc397e89a57d1f8cd3b1dfd624ee25235cf91717c0a364f798a1923e2f664736f6c63430005110032",
  "source": "pragma solidity 0.5.17;\n\nimport \"@openzeppelin/contracts/token/ERC20/IERC20.sol\";\nimport \"@openzeppelin/contracts/ownership/Ownable.sol\";\nimport \"./BridgedToken.sol\";\n\ncontract TokenManager is Ownable {\n    // ethtoken to onetoken mapping\n    mapping(address => address) public mappedTokens;\n\n    event TokenMapAck(address indexed tokenReq, address indexed tokenAck);\n\n    mapping(address => uint256) public wards;\n\n    function rely(address guy) external onlyOwner {\n        wards[guy] = 1;\n    }\n\n    function deny(address guy) external onlyOwner {\n        require(guy != owner(), \"TokenManager/cannot deny the owner\");\n        wards[guy] = 0;\n    }\n\n    // both owner and admin must approve\n    modifier auth {\n        require(wards[msg.sender] == 1, \"TokenManager/not-authorized\");\n        _;\n    }\n\n    /**\n     * @dev map ethereum token to harmony token and emit mintAddress\n     * @param ethTokenAddr address of the ethereum token\n     * @return mintAddress of the mapped token\n     */\n    function addToken(\n        address ethTokenAddr,\n        string memory name,\n        string memory symbol,\n        uint8 decimals\n    ) public auth returns (address) {\n        require(\n            ethTokenAddr != address(0),\n            \"TokenManager/ethToken is a zero address\"\n        );\n        require(\n            mappedTokens[ethTokenAddr] == address(0),\n            \"TokenManager/ethToken already mapped\"\n        );\n\n        BridgedToken bridgedToken = new BridgedToken(\n            ethTokenAddr,\n            name,\n            symbol,\n            decimals\n        );\n        address bridgedTokenAddr = address(bridgedToken);\n\n        // store the mapping and created address\n        mappedTokens[ethTokenAddr] = bridgedTokenAddr;\n\n        // assign minter role to the caller\n        bridgedToken.addMinter(msg.sender);\n\n        emit TokenMapAck(ethTokenAddr, bridgedTokenAddr);\n        return bridgedTokenAddr;\n    }\n\n    /**\n     * @dev register an ethereum token to harmony token mapping\n     * @param ethTokenAddr address of the ethereum token\n     * @return oneToken of the mapped harmony token\n     */\n    function registerToken(address ethTokenAddr, address oneTokenAddr)\n        public\n        auth\n        returns (bool)\n    {\n        require(\n            ethTokenAddr != address(0),\n            \"TokenManager/ethTokenAddr is a zero address\"\n        );\n        require(\n            mappedTokens[ethTokenAddr] == address(0),\n            \"TokenManager/ethTokenAddr already mapped\"\n        );\n\n        // store the mapping and created address\n        mappedTokens[ethTokenAddr] = oneTokenAddr;\n    }\n\n    /**\n     * @dev remove an existing token mapping\n     * @param ethTokenAddr address of the ethereum token\n     * @param supply only allow removing mapping when supply, e.g., zero or 10**27\n     */\n    function removeToken(address ethTokenAddr, uint256 supply) public auth {\n        require(\n            mappedTokens[ethTokenAddr] != address(0),\n            \"TokenManager/ethToken mapping does not exists\"\n        );\n        IERC20 oneToken = IERC20(mappedTokens[ethTokenAddr]);\n        require(\n            oneToken.totalSupply() == supply,\n            \"TokenManager/remove has non-zero supply\"\n        );\n        delete mappedTokens[ethTokenAddr];\n    }\n}\n",
  "sourcePath": "/home/fernando/repos/harmony/hmy-eth-bridge/contracts/lib/TokenManager.sol",
  "compiler": {
    "name": "solc",
    "version": "0.5.17+commit.d19bba13.Emscripten.clang"
  },
  "schemaVersion": "3.4.7",
  "updatedAt": "2022-06-08T19:55:20.986Z",
  "devdoc": {
    "methods": {
      "addToken(address,string,string,uint8)": {
        "details": "map ethereum token to harmony token and emit mintAddress",
        "params": {
          "ethTokenAddr": "address of the ethereum token"
        },
        "return": "mintAddress of the mapped token"
      },
      "isOwner()": {
        "details": "Returns true if the caller is the current owner."
      },
      "owner()": {
        "details": "Returns the address of the current owner."
      },
      "registerToken(address,address)": {
        "details": "register an ethereum token to harmony token mapping",
        "params": {
          "ethTokenAddr": "address of the ethereum token"
        },
        "return": "oneToken of the mapped harmony token"
      },
      "removeToken(address,uint256)": {
        "details": "remove an existing token mapping",
        "params": {
          "ethTokenAddr": "address of the ethereum token",
          "supply": "only allow removing mapping when supply, e.g., zero or 10**27"
        }
      },
      "renounceOwnership()": {
        "details": "Leaves the contract without owner. It will not be possible to call `onlyOwner` functions anymore. Can only be called by the current owner.     * NOTE: Renouncing ownership will leave the contract without an owner, thereby removing any functionality that is only available to the owner."
      },
      "transferOwnership(address)": {
        "details": "Transfers ownership of the contract to a new account (`newOwner`). Can only be called by the current owner."
      }
    }
  },
  "userdoc": {
    "methods": {}
  }
}